{
  "address": "0x2B529A051171Bd629322dB9979650190FB72949D",
  "abi": [
    {
      "inputs": [
        {
          "internalType": "address",
          "name": "_collateralAddress",
          "type": "address"
        },
        {
          "internalType": "address",
          "name": "_finderAddress",
          "type": "address"
        },
        {
          "internalType": "bytes32",
          "name": "_priceIdentifier",
          "type": "bytes32"
        },
        {
          "internalType": "address",
          "name": "_timerAddress",
          "type": "address"
        }
      ],
      "stateMutability": "nonpayable",
      "type": "constructor"
    },
    {
      "anonymous": false,
      "inputs": [
        {
          "indexed": true,
          "internalType": "address",
          "name": "user",
          "type": "address"
        },
        {
          "indexed": true,
          "internalType": "uint256",
          "name": "collateralAmount",
          "type": "uint256"
        }
      ],
      "name": "Deposit",
      "type": "event"
    },
    {
      "anonymous": false,
      "inputs": [
        {
          "indexed": true,
          "internalType": "address",
          "name": "user",
          "type": "address"
        }
      ],
      "name": "EndedOptimisticDepositBox",
      "type": "event"
    },
    {
      "anonymous": false,
      "inputs": [
        {
          "indexed": true,
          "internalType": "address",
          "name": "user",
          "type": "address"
        }
      ],
      "name": "NewOptimisticDepositBox",
      "type": "event"
    },
    {
      "anonymous": false,
      "inputs": [
        {
          "indexed": true,
          "internalType": "address",
          "name": "user",
          "type": "address"
        },
        {
          "indexed": true,
          "internalType": "uint256",
          "name": "collateralAmount",
          "type": "uint256"
        },
        {
          "indexed": false,
          "internalType": "uint256",
          "name": "withdrawalRequestTimestamp",
          "type": "uint256"
        }
      ],
      "name": "RequestWithdrawal",
      "type": "event"
    },
    {
      "anonymous": false,
      "inputs": [
        {
          "indexed": true,
          "internalType": "address",
          "name": "user",
          "type": "address"
        },
        {
          "indexed": true,
          "internalType": "uint256",
          "name": "collateralAmount",
          "type": "uint256"
        },
        {
          "indexed": false,
          "internalType": "uint256",
          "name": "withdrawalRequestTimestamp",
          "type": "uint256"
        }
      ],
      "name": "RequestWithdrawalCanceled",
      "type": "event"
    },
    {
      "anonymous": false,
      "inputs": [
        {
          "indexed": true,
          "internalType": "address",
          "name": "user",
          "type": "address"
        },
        {
          "indexed": true,
          "internalType": "uint256",
          "name": "collateralAmount",
          "type": "uint256"
        },
        {
          "indexed": false,
          "internalType": "uint256",
          "name": "exchangeRate",
          "type": "uint256"
        },
        {
          "indexed": false,
          "internalType": "uint256",
          "name": "withdrawalRequestTimestamp",
          "type": "uint256"
        }
      ],
      "name": "RequestWithdrawalExecuted",
      "type": "event"
    },
    {
      "inputs": [],
      "name": "cancelWithdrawal",
      "outputs": [],
      "stateMutability": "nonpayable",
      "type": "function"
    },
    {
      "inputs": [],
      "name": "collateralCurrency",
      "outputs": [
        {
          "internalType": "contract IERC20",
          "name": "",
          "type": "address"
        }
      ],
      "stateMutability": "view",
      "type": "function"
    },
    {
      "inputs": [
        {
          "internalType": "uint256",
          "name": "collateralAmount",
          "type": "uint256"
        }
      ],
      "name": "deposit",
      "outputs": [],
      "stateMutability": "nonpayable",
      "type": "function"
    },
    {
      "inputs": [],
      "name": "executeWithdrawal",
      "outputs": [
        {
          "internalType": "uint256",
          "name": "amountWithdrawn",
          "type": "uint256"
        }
      ],
      "stateMutability": "nonpayable",
      "type": "function"
    },
    {
      "inputs": [
        {
          "internalType": "address",
          "name": "user",
          "type": "address"
        }
      ],
      "name": "getCollateral",
      "outputs": [
        {
          "internalType": "uint256",
          "name": "",
          "type": "uint256"
        }
      ],
      "stateMutability": "view",
      "type": "function"
    },
    {
      "inputs": [],
      "name": "getCurrentTime",
      "outputs": [
        {
          "internalType": "uint256",
          "name": "",
          "type": "uint256"
        }
      ],
      "stateMutability": "view",
      "type": "function"
    },
    {
      "inputs": [
        {
          "internalType": "uint256",
          "name": "denominatedCollateralAmount",
          "type": "uint256"
        }
      ],
      "name": "requestWithdrawal",
      "outputs": [],
      "stateMutability": "nonpayable",
      "type": "function"
    },
    {
      "inputs": [
        {
          "internalType": "uint256",
          "name": "time",
          "type": "uint256"
        }
      ],
      "name": "setCurrentTime",
      "outputs": [],
      "stateMutability": "nonpayable",
      "type": "function"
    },
    {
      "inputs": [],
      "name": "timerAddress",
      "outputs": [
        {
          "internalType": "address",
          "name": "",
          "type": "address"
        }
      ],
      "stateMutability": "view",
      "type": "function"
    },
    {
      "inputs": [],
      "name": "totalOptimisticDepositBoxCollateral",
      "outputs": [
        {
          "internalType": "uint256",
          "name": "",
          "type": "uint256"
        }
      ],
      "stateMutability": "view",
      "type": "function"
    }
  ],
  "transactionHash": "0x552569ba482e47e03e82b40f80a5f8cd4ee16b6582c2f1f8297c9c7e74ee4ab3",
  "args": [
    "0x00526C1ede46255b752D280620318ab50B24c20e",
    "0xbb6206fb01fAad31e8aaFc3AD303cEA89D8c8157",
    "0x566f6c6174696c69747944414f7261636c650000000000000000000000000000",
    "0x0000000000000000000000000000000000000000"
  ],
  "numDeployments": 1,
  "solcInputHash": "2e1573a721e7fcdcb299fb01268975b5",
  "bytecode": "0x60806040523480156200001157600080fd5b50604051620019a7380380620019a78339810160408190526200003491620003c7565b600080546001600160a81b0319166001600160a01b03831617600160a01b1790556200005f62000265565b620000726000805460ff60a01b19169055565b600380546001600160a01b0319166001600160a01b03851617905562000097620002c2565b6001600160a01b03166390978d1b836040518263ffffffff1660e01b8152600401620000c591815260200190565b602060405180830381865afa158015620000e3573d6000803e3d6000fd5b505050506040513d601f19601f820116820180604052508101906200010991906200041b565b6200015b5760405162461bcd60e51b815260206004820152601c60248201527f556e737570706f72746564207072696365206964656e7469666965720000000060448201526064015b60405180910390fd5b6200016562000358565b604051631d1d5b3960e11b81526001600160a01b0386811660048301529190911690633a3ab67290602401602060405180830381865afa158015620001ae573d6000803e3d6000fd5b505050506040513d601f19601f82011682018060405250810190620001d491906200041b565b620002225760405162461bcd60e51b815260206004820152601b60248201527f556e737570706f7274656420636f6c6c61746572616c20747970650000000000604482015260640162000152565b600480546001600160a01b0319166001600160a01b03861617905560028290556200025b6000805460ff60a01b1916600160a01b179055565b5050505062000464565b600054600160a01b900460ff16620002c05760405162461bcd60e51b815260206004820152601f60248201527f5265656e7472616e637947756172643a207265656e7472616e742063616c6c00604482015260640162000152565b565b6003546040516302abf57960e61b81527f4964656e74696669657257686974656c6973740000000000000000000000000060048201526000916001600160a01b03169063aafd5e40906024015b602060405180830381865afa1580156200032d573d6000803e3d6000fd5b505050506040513d601f19601f8201168201806040525081019062000353919062000446565b905090565b6003546040516302abf57960e61b81527f436f6c6c61746572616c57686974656c6973740000000000000000000000000060048201526000916001600160a01b03169063aafd5e40906024016200030f565b80516001600160a01b0381168114620003c257600080fd5b919050565b60008060008060808587031215620003de57600080fd5b620003e985620003aa565b9350620003f960208601620003aa565b9250604085015191506200041060608601620003aa565b905092959194509250565b6000602082840312156200042e57600080fd5b815180151581146200043f57600080fd5b9392505050565b6000602082840312156200045957600080fd5b6200043f82620003aa565b61153380620004746000396000f3fe608060405234801561001057600080fd5b50600436106100be5760003560e01c80639b56d6c911610076578063b6b55f251161005b578063b6b55f2514610186578063dfddabaa14610199578063fa45aa00146101a257600080fd5b80639b56d6c9146101605780639ee679e81461017357600080fd5b806322611280116100a7578063226112801461012d57806322f8e5661461013757806329cb924d1461014a57600080fd5b80630de15fd9146100c35780631c39c38d1461010d575b600080fd5b6004546100e39073ffffffffffffffffffffffffffffffffffffffff1681565b60405173ffffffffffffffffffffffffffffffffffffffff90911681526020015b60405180910390f35b6000546100e39073ffffffffffffffffffffffffffffffffffffffff1681565b6101356101aa565b005b6101356101453660046112de565b6102ef565b610152610398565b604051908152602001610104565b61015261016e366004611319565b610453565b6101356101813660046112de565b610489565b6101356101943660046112de565b6105dd565b61015260055481565b610152610781565b6101b26109a4565b6101df600080547fffffffffffffffffffffff00ffffffffffffffffffffffffffffffffffffffff169055565b336000908152600160208190526040822090810154909103610262576040517f08c379a000000000000000000000000000000000000000000000000000000000815260206004820152601560248201527f4e6f2070656e64696e67207769746864726177616c000000000000000000000060448201526064015b60405180910390fd5b8054600182015460405190815233907fb158ea6c33db5aec992a08be94850f984ed987f3d524e5ec7d0662b689093b149060200160405180910390a360008082556001820155506102ed600080547fffffffffffffffffffffff00ffffffffffffffffffffffffffffffffffffffff1674010000000000000000000000000000000000000000179055565b565b60005473ffffffffffffffffffffffffffffffffffffffff1661031157600080fd5b6000546040517f22f8e5660000000000000000000000000000000000000000000000000000000081526004810183905273ffffffffffffffffffffffffffffffffffffffff909116906322f8e56690602401600060405180830381600087803b15801561037d57600080fd5b505af1158015610391573d6000803e3d6000fd5b5050505050565b6000805473ffffffffffffffffffffffffffffffffffffffff161561044b5760008054906101000a900473ffffffffffffffffffffffffffffffffffffffff1673ffffffffffffffffffffffffffffffffffffffff166329cb924d6040518163ffffffff1660e01b8152600401602060405180830381865afa158015610422573d6000803e3d6000fd5b505050506040513d601f19601f820116820180604052508101906104469190611336565b905090565b504290565b90565b600061045d6109a4565b5073ffffffffffffffffffffffffffffffffffffffff1660009081526001602052604090206002015490565b3361049381610a28565b61049b6109a4565b6104c8600080547fffffffffffffffffffffff00ffffffffffffffffffffffffffffffffffffffff169055565b3360009081526001602052604090208261053e576040517f08c379a000000000000000000000000000000000000000000000000000000000815260206004820152601960248201527f496e76616c696420636f6c6c61746572616c20616d6f756e74000000000000006044820152606401610259565b828155610549610398565b60018201819055604051908152839033907fadf0d81321571e1d83f52cfa9faf7add412d39431677ee21583f0d8998a9c8389060200160405180910390a36105948160010154610ab9565b506105d9600080547fffffffffffffffffffffff00ffffffffffffffffffffffffffffffffffffffff1674010000000000000000000000000000000000000000179055565b5050565b6105e56109a4565b610612600080547fffffffffffffffffffffff00ffffffffffffffffffffffffffffffffffffffff169055565b6000811161067c576040517f08c379a000000000000000000000000000000000000000000000000000000000815260206004820152601960248201527f496e76616c696420636f6c6c61746572616c20616d6f756e74000000000000006044820152606401610259565b33600090815260016020526040812060028101549091036106c35760405133907f5b4f05768e926839c662b50d15b54a8dc09e7bcecdc5555797b36befc536be7990600090a25b60028101546106d29083610b87565b60028201556005546106e49083610b87565b600555604051829033907fe1fffcc4923d04b559f4d29a8bfc6cda04eb5b0d3c460751c2402c5c5cc9109c90600090a36004546107399073ffffffffffffffffffffffffffffffffffffffff16333085610b9a565b5061077e600080547fffffffffffffffffffffff00ffffffffffffffffffffffffffffffffffffffff1674010000000000000000000000000000000000000000179055565b50565b600061078b6109a4565b6107b8600080547fffffffffffffffffffffff00ffffffffffffffffffffffffffffffffffffffff169055565b33600090815260016020819052604090912090810154158015906107e757506107df610398565b816001015411155b61084d576040517f08c379a000000000000000000000000000000000000000000000000000000000815260206004820152601860248201527f496e76616c6964207769746864726177207265717565737400000000000000006044820152606401610259565b600061085c8260010154610c7c565b60408051602080820183528382528251908101909252845482529192506000916108869190610e60565b51600284015490915081106108c75750600282015460405133907ffaef2b8b7c70f0da0a2ba1eb9e2b903a20a3b6004f0199a097e39be70119f5a890600090a25b60028301546108d69082610ea5565b60028401556005546108e89082610ea5565b6005556001830154604080518481526020810192909252829133917f1489278b1433363140f0068698af68fad66f0f617b6cabe5710540b57397de42910160405180910390a36000808455600184015560045461095c9073ffffffffffffffffffffffffffffffffffffffff163383610eb1565b92505050610450600080547fffffffffffffffffffffff00ffffffffffffffffffffffffffffffffffffffff1674010000000000000000000000000000000000000000179055565b60005474010000000000000000000000000000000000000000900460ff166102ed576040517f08c379a000000000000000000000000000000000000000000000000000000000815260206004820152601f60248201527f5265656e7472616e637947756172643a207265656e7472616e742063616c6c006044820152606401610259565b73ffffffffffffffffffffffffffffffffffffffff8116600090815260016020819052604090912001541561077e576040517f08c379a000000000000000000000000000000000000000000000000000000000815260206004820152601260248201527f50656e64696e67207769746864726177616c00000000000000000000000000006044820152606401610259565b6000610ac3610f07565b600254600480546040517f11df92f1000000000000000000000000000000000000000000000000000000008152918201929092526024810185905260a06044820152600060a4820181905273ffffffffffffffffffffffffffffffffffffffff928316606483015260848201529192508216906311df92f19060c4016020604051808303816000875af1158015610b5e573d6000803e3d6000fd5b505050506040513d601f19601f82011682018060405250810190610b829190611336565b505050565b6000610b93828461137e565b9392505050565b60405173ffffffffffffffffffffffffffffffffffffffff80851660248301528316604482015260648101829052610c769085907f23b872dd00000000000000000000000000000000000000000000000000000000906084015b604080517fffffffffffffffffffffffffffffffffffffffffffffffffffffffffffffffe08184030181529190526020810180517bffffffffffffffffffffffffffffffffffffffffffffffffffffffff167fffffffff0000000000000000000000000000000000000000000000000000000090931692909217909152610fba565b50505050565b600080610c87610f07565b6002546040517fbc58ccaa000000000000000000000000000000000000000000000000000000008152306004820152602481019190915260448101859052608060648201526000608482015290915073ffffffffffffffffffffffffffffffffffffffff82169063bc58ccaa9060a401602060405180830381865afa158015610d14573d6000803e3d6000fd5b505050506040513d601f19601f82011682018060405250810190610d389190611396565b610d9e576040517f08c379a000000000000000000000000000000000000000000000000000000000815260206004820152601760248201527f556e7265736f6c766564206f7261636c652070726963650000000000000000006044820152606401610259565b6002546040517f53b59239000000000000000000000000000000000000000000000000000000008152600481019190915260248101849052606060448201526000606482018190529073ffffffffffffffffffffffffffffffffffffffff8316906353b59239906084016020604051808303816000875af1158015610e27573d6000803e3d6000fd5b505050506040513d601f19601f82011682018060405250810190610e4b9190611336565b90506000811215610b93575060009392505050565b6040805160208101909152600081526040805160208101909152825184518291610e9c91610e9690670de0b6b3a76400006110c6565b906110d2565b90529392505050565b6000610b9382846113b8565b60405173ffffffffffffffffffffffffffffffffffffffff8316602482015260448101829052610b829084907fa9059cbb0000000000000000000000000000000000000000000000000000000090606401610bf4565b6003546040517faafd5e400000000000000000000000000000000000000000000000000000000081527f4f7074696d69737469634f7261636c6500000000000000000000000000000000600482015260009173ffffffffffffffffffffffffffffffffffffffff169063aafd5e4090602401602060405180830381865afa158015610f96573d6000803e3d6000fd5b505050506040513d601f19601f8201168201806040525081019061044691906113cf565b600061101c826040518060400160405280602081526020017f5361666545524332303a206c6f772d6c6576656c2063616c6c206661696c65648152508573ffffffffffffffffffffffffffffffffffffffff166110de9092919063ffffffff16565b805190915015610b82578080602001905181019061103a9190611396565b610b82576040517f08c379a000000000000000000000000000000000000000000000000000000000815260206004820152602a60248201527f5361666545524332303a204552433230206f7065726174696f6e20646964206e60448201527f6f742073756363656564000000000000000000000000000000000000000000006064820152608401610259565b6000610b9382846113ec565b6000610b938284611429565b60606110ed84846000856110f5565b949350505050565b606082471015611187576040517f08c379a000000000000000000000000000000000000000000000000000000000815260206004820152602660248201527f416464726573733a20696e73756666696369656e742062616c616e636520666f60448201527f722063616c6c00000000000000000000000000000000000000000000000000006064820152608401610259565b73ffffffffffffffffffffffffffffffffffffffff85163b611205576040517f08c379a000000000000000000000000000000000000000000000000000000000815260206004820152601d60248201527f416464726573733a2063616c6c20746f206e6f6e2d636f6e74726163740000006044820152606401610259565b6000808673ffffffffffffffffffffffffffffffffffffffff16858760405161122e9190611490565b60006040518083038185875af1925050503d806000811461126b576040519150601f19603f3d011682016040523d82523d6000602084013e611270565b606091505b509150915061128082828661128b565b979650505050505050565b6060831561129a575081610b93565b8251156112aa5782518084602001fd5b816040517f08c379a000000000000000000000000000000000000000000000000000000000815260040161025991906114ac565b6000602082840312156112f057600080fd5b5035919050565b73ffffffffffffffffffffffffffffffffffffffff8116811461077e57600080fd5b60006020828403121561132b57600080fd5b8135610b93816112f7565b60006020828403121561134857600080fd5b5051919050565b7f4e487b7100000000000000000000000000000000000000000000000000000000600052601160045260246000fd5b600082198211156113915761139161134f565b500190565b6000602082840312156113a857600080fd5b81518015158114610b9357600080fd5b6000828210156113ca576113ca61134f565b500390565b6000602082840312156113e157600080fd5b8151610b93816112f7565b6000817fffffffffffffffffffffffffffffffffffffffffffffffffffffffffffffffff04831182151516156114245761142461134f565b500290565b60008261145f577f4e487b7100000000000000000000000000000000000000000000000000000000600052601260045260246000fd5b500490565b60005b8381101561147f578181015183820152602001611467565b83811115610c765750506000910152565b600082516114a2818460208701611464565b9190910192915050565b60208152600082518060208401526114cb816040850160208701611464565b601f017fffffffffffffffffffffffffffffffffffffffffffffffffffffffffffffffe016919091016040019291505056fea2646970667358221220e6a4b65f07c0127d9cded9dd5275491c7cfa06e9a31987800624141213d1a5b464736f6c634300080d0033",
  "devdoc": {
    "kind": "dev",
    "methods": {
      "constructor": {
        "params": {
          "_collateralAddress": "ERC20 token to be deposited.",
          "_finderAddress": "UMA protocol Finder used to discover other protocol contracts.",
          "_priceIdentifier": "registered in the DVM, used to price the ERC20 deposited. The price identifier consists of a \"base\" asset and a \"quote\" asset. The \"base\" asset corresponds to the collateral ERC20 currency deposited into this account, and it is denominated in the \"quote\" asset on withdrawals. An example price identifier would be \"ETH/USD\" which will resolve and return the USD price of ETH.",
          "_timerAddress": "contract that stores the current time in a testing environment. Must be set to 0x0 for production environments that use live time."
        }
      },
      "deposit(uint256)": {
        "details": "This contract must be approved to spend at least `collateralAmount` of `collateralCurrency`.",
        "params": {
          "collateralAmount": "total amount of collateral tokens to be sent to the sponsor's position."
        }
      },
      "executeWithdrawal()": {
        "details": "Might not withdraw the full requested amount in order to account for precision loss.",
        "returns": {
          "amountWithdrawn": "The actual amount of collateral withdrawn."
        }
      },
      "getCollateral(address)": {
        "params": {
          "user": "address whose collateral amount is retrieved."
        },
        "returns": {
          "_0": "the collateral amount in the deposit box (i.e. available for withdrawal)."
        }
      },
      "getCurrentTime()": {
        "returns": {
          "_0": "uint for the current Testable timestamp."
        }
      },
      "requestWithdrawal(uint256)": {
        "details": "The request will be pending for the duration of the liveness period and can be cancelled at any time. Only one withdrawal request can exist for the user.",
        "params": {
          "denominatedCollateralAmount": "the quote-asset denominated amount of collateral requested to withdraw."
        }
      },
      "setCurrentTime(uint256)": {
        "details": "Will revert if not running in test mode.",
        "params": {
          "time": "timestamp to set current Testable time to."
        }
      }
    },
    "title": "Optimistic Token Deposit Box",
    "version": 1
  },
  "userdoc": {
    "kind": "user",
    "methods": {
      "cancelWithdrawal()": {
        "notice": "Cancels a pending withdrawal request."
      },
      "constructor": {
        "notice": "Construct the OptimisticDepositBox."
      },
      "deposit(uint256)": {
        "notice": "Transfers `collateralAmount` of `collateralCurrency` into caller's deposit box."
      },
      "executeWithdrawal()": {
        "notice": "After a withdrawal request (i.e., by a call to `requestWithdrawal`) and optimistic oracle price resolution, withdraws `depositBoxData.withdrawalRequestAmount` of collateral currency denominated in the quote asset."
      },
      "getCollateral(address)": {
        "notice": "Accessor method for a user's collateral."
      },
      "getCurrentTime()": {
        "notice": "Gets the current time. Will return the last time set in `setCurrentTime` if running in test mode. Otherwise, it will return the block timestamp."
      },
      "requestWithdrawal(uint256)": {
        "notice": "Starts a withdrawal request that allows the sponsor to withdraw `denominatedCollateralAmount` from their position denominated in the quote asset of the price identifier, following a Optimistic Oracle price resolution."
      },
      "setCurrentTime(uint256)": {
        "notice": "Sets the current time."
      }
    },
    "notice": "This is a minimal example of a financial template that depends on price requests from the Optimistic Oracle. This contract should be thought of as a \"Deposit Box\" into which the user deposits some ERC20 collateral. The main feature of this box is that the user can withdraw their ERC20 corresponding to a desired USD amount. When the user wants to make a withdrawal, a price request is made to the Optimistic Oracle. For simplicity, the user is constrained to have one outstanding withdrawal request at any given time. Final fees are charged to the proposer of a price but not to the contract making a price request. This example is intended to accompany a technical tutorial for how to integrate the Optimistic Oracle into a project. The main feature this demo serves to showcase is how to build a financial product on-chain that \"pulls\" price requests from the Optimistic Oracle on-demand, which is an implementation of the \"priceless\" oracle framework. The typical user flow would be: - User sets up a deposit box for the ETH/USD price-identifier.   The \"collateral currency\" in this deposit box is therefore wETH.   The user can subsequently make withdrawal requests for USD-denominated amounts of wETH. - User deposits 10 wETH into their deposit box. - User later requests to withdraw $10,000 USD of wETH. - OptimisticDepositBox asks Optimistic Oracle for latest ETH/USD exchange rate. - Optimistic Oracle resolves the exchange rate at: 1 wETH is worth 2000 USD. - OptimisticDepositBox transfers 5 wETH to user.",
    "version": 1
  },
  "storageLayout": {
    "storage": [
      {
        "astId": 3642,
        "contract": "contracts/OptimisticDepositBox.sol:OptimisticDepositBox",
        "label": "timerAddress",
        "offset": 0,
        "slot": "0",
        "type": "t_address"
      },
      {
        "astId": 2955,
        "contract": "contracts/OptimisticDepositBox.sol:OptimisticDepositBox",
        "label": "_notEntered",
        "offset": 20,
        "slot": "0",
        "type": "t_bool"
      },
      {
        "astId": 4746,
        "contract": "contracts/OptimisticDepositBox.sol:OptimisticDepositBox",
        "label": "depositBoxes",
        "offset": 0,
        "slot": "1",
        "type": "t_mapping(t_address,t_struct(OptimisticDepositBoxData)4741_storage)"
      },
      {
        "astId": 4748,
        "contract": "contracts/OptimisticDepositBox.sol:OptimisticDepositBox",
        "label": "priceIdentifier",
        "offset": 0,
        "slot": "2",
        "type": "t_bytes32"
      },
      {
        "astId": 4751,
        "contract": "contracts/OptimisticDepositBox.sol:OptimisticDepositBox",
        "label": "finder",
        "offset": 0,
        "slot": "3",
        "type": "t_contract(FinderInterface)4384"
      },
      {
        "astId": 4754,
        "contract": "contracts/OptimisticDepositBox.sol:OptimisticDepositBox",
        "label": "collateralCurrency",
        "offset": 0,
        "slot": "4",
        "type": "t_contract(IERC20)182"
      },
      {
        "astId": 4756,
        "contract": "contracts/OptimisticDepositBox.sol:OptimisticDepositBox",
        "label": "totalOptimisticDepositBoxCollateral",
        "offset": 0,
        "slot": "5",
        "type": "t_uint256"
      }
    ],
    "types": {
      "t_address": {
        "encoding": "inplace",
        "label": "address",
        "numberOfBytes": "20"
      },
      "t_bool": {
        "encoding": "inplace",
        "label": "bool",
        "numberOfBytes": "1"
      },
      "t_bytes32": {
        "encoding": "inplace",
        "label": "bytes32",
        "numberOfBytes": "32"
      },
      "t_contract(FinderInterface)4384": {
        "encoding": "inplace",
        "label": "contract FinderInterface",
        "numberOfBytes": "20"
      },
      "t_contract(IERC20)182": {
        "encoding": "inplace",
        "label": "contract IERC20",
        "numberOfBytes": "20"
      },
      "t_mapping(t_address,t_struct(OptimisticDepositBoxData)4741_storage)": {
        "encoding": "mapping",
        "key": "t_address",
        "label": "mapping(address => struct OptimisticDepositBox.OptimisticDepositBoxData)",
        "numberOfBytes": "32",
        "value": "t_struct(OptimisticDepositBoxData)4741_storage"
      },
      "t_struct(OptimisticDepositBoxData)4741_storage": {
        "encoding": "inplace",
        "label": "struct OptimisticDepositBox.OptimisticDepositBoxData",
        "members": [
          {
            "astId": 4736,
            "contract": "contracts/OptimisticDepositBox.sol:OptimisticDepositBox",
            "label": "withdrawalRequestAmount",
            "offset": 0,
            "slot": "0",
            "type": "t_uint256"
          },
          {
            "astId": 4738,
            "contract": "contracts/OptimisticDepositBox.sol:OptimisticDepositBox",
            "label": "withdrawalRequestTimestamp",
            "offset": 0,
            "slot": "1",
            "type": "t_uint256"
          },
          {
            "astId": 4740,
            "contract": "contracts/OptimisticDepositBox.sol:OptimisticDepositBox",
            "label": "collateral",
            "offset": 0,
            "slot": "2",
            "type": "t_uint256"
          }
        ],
        "numberOfBytes": "96"
      },
      "t_uint256": {
        "encoding": "inplace",
        "label": "uint256",
        "numberOfBytes": "32"
      }
    }
  }
}